:1000000092C30000C1C30000BFC30000BDC3000015
:10001000BBC30000B9C30000B7C30000B5C30000F4
:10002000B3C30000B1C30000AFC30000ADC3000004
:10003000ABC30000A9C30000A7C30000A5C3000014
:10004000A3C30000A1C300009FC300009DC3000024
:100050009BC3000099C3000097C300000C942E0DB1
:1000600093C300000C94210C0C94F70B8DC300007B
:100070008BC3000089C3000087C3000085C3000054
:1000800083C3000081C300007FC300007DC3000064
:100090007BC3000079C3000077C300000C94780D87
:1000A00073C3000071C300006FC300006DC3000084
:1000B0006BC3000069C3000067C3000065C3000094
:1000C00063C3000061C300005FC300005DC30000A4
:1000D0005BC3000059C3000057C3000055C30000B4
:1000E00053C30000E604E904D804DC04E20420055C
:1000F000ED04F104F704FB04FF04050509050D05F3
:100100002005130517051B0500000000003E5B4F8E
:100110005B3E3E6B4F6B3E1C3E7C3E1C183C7E3C67
:10012000181C577D571C1C5E7F5E1C00183C180075
:10013000FFE7C3E7FF0018241800FFE7DBE7FF3005
:10014000483A060E2629792926407F050507407F73
:1001500005253F5A3CE73C5A7F3E1C1C08081C1CE6
:100160003E7F14227F22145F5F005F5F06097F01DC
:100170007F006689956A606060606094A2FFA294C7
:1001800008047E040810207E201008082A1C080895
:100190001C2A08081E101010100C1E0C1E0C3038E3
:1001A0003E3830060E3E0E06000000000000005FE4
:1001B00000000007000700147F147F14242A7F2A00
:1001C00012231308646236495620500008070300C2
:1001D000001C2241000041221C002A1C7F1C2A080E
:1001E000083E080800807030000808080808000071
:1001F00060600020100804023E5149453E00427FE5
:10020000400072494949462141494D331814127F33
:100210001027454545393C4A4949314121110907D3
:100220003649494936464949291E00001400000054
:100230004034000000081422411414141414004126
:1002400022140802015909063E415D594E7C1211E3
:10025000127C7F494949363E414141227F4141411B
:100260003E7F494949417F090909013E4141517396
:100270007F0808087F00417F41002040413F017F07
:10028000081422417F404040407F021C027F7F04CF
:1002900008107F3E4141413E7F090909063E415118
:1002A000215E7F09192946264949493203017F0108
:1002B000033F4040403F1F2040201F3F4038403F09
:1002C000631408146303047804036159494D43001F
:1002D0007F4141410204081020004141417F040256
:1002E00001020440404040400003070800205454ED
:1002F00078407F28444438384444442838444428CB
:100300007F385454541800087E090218A4A49C781D
:100310007F0804047800447D40002040403D007F79
:100320001028440000417F40007C047804787C0859
:100330000404783844444438FC182424181824242D
:1003400018FC7C08040408485454542404043F4412
:10035000243C4040207C1C2040201C3C4030403C41
:1003600044281028444C9090907C4464544C4400A1
:100370000836410000007700000041360800020105
:100380000204023C2623263C1EA1A161123A4040F1
:10039000207A38545455592155557941225454786E
:1003A00042215554784020545579400C1E52721207
:1003B0003955555559395454545939555454580090
:1003C00000457C410002457D420001457C407D1294
:1003D00011127DF0282528F07C54554500205454F6
:1003E0007C547C0A097F4932494949323A444444A1
:1003F0003A324A4848303A4141217A3A42402078DC
:10040000009DA0A07D3D4242423D3D4040403D3CDC
:1004100024FF2424487E4943662B2FFC2F2BFF0901
:1004200029F620C0887E09032054547941000044F5
:100430007D413048484A32384040227A007A0A0AE0
:10044000727D0D19317D2629292F28262929292653
:1004500030484D4020380808080808080808382F98
:1004600010C8ACBA2F102834FA00007B0000081422
:100470002A142222142A1408AA005500AAAA55AA4E
:1004800055AA000000FF00101010FF00141414FF04
:10049000001010FF00FF1010F010F0141414FC00F6
:1004A0001414F700FF0000FF00FF1414F404FC1400
:1004B0001417101F10101F101F1414141F001010F9
:1004C00010F0000000001F101010101F101010106E
:1004D000F010000000FF101010101010101010FF8E
:1004E00010000000FF140000FF00FF00001F1017A5
:1004F0000000FC04F414141710171414F404F4008E
:1005000000FF00F714141414141414F700F7141453
:1005100014171410101F101F141414F4141010F0DA
:1005200010F000001F101F0000001F14000000FC4E
:10053000140000F010F01010FF10FF141414FF143A
:100540001010101F00000000F010FFFFFFFFFFF071
:10055000F0F0F0F0FFFFFF0000000000FFFF0F0FC2
:100560000F0F0F3844443844FC4A4A4A347E020292
:100570000606027E027E0263554941633844443CCC
:1005800004407E201E2006027E020299A5E7A5995E
:100590001C2A492A1C4C7201724C304A4D4D303095
:1005A00048784830BC625A463D3E494949007E0180
:1005B00001017E2A2A2A2A2A44445F444440514A9F
:1005C000444040444A51400000FF0103E080FF00E6
:1005D0000008086B6B083612362436060F090F0622
:1005E000000018180000001010003040FF0101004A
:1005F0001F01011E00191D1712003C3C3C3C00006D
:10060000000000000020002300260029002C002FFD
:100610000032000001000003010601090100000A88
:100620000B02090C0D0E0807030401000000000076
:1006300000000000000000000000000000000000BA
:100640000000000000000000001211100000000077
:10065000000000000000000000000000000000009A
:1006600000000000002100240027002A002D003097
:1006700000330001010000040107010A010102101A
:1006800020200808102040102040800201020108AC
:10069000040201010204081020408080402010085C
:1006A00004020180040201804020100804020108B5
:1006B0000402010102040810204080010204081015
:1006C00020408000002200250028002B002E003151
:1006D00000340002010000050108010B01050505B9
:1006E00005070508080808020202020A0A080804A9
:1006F00004040401010101010101010303030303D7
:10070000030303040707070C0C0C0C0C0C0C0C0265
:1007100002020206060606060606060B0B0B0B0B6C
:100720000B0B0B00351611241FBECFEFD1E2DEBF3D
:10073000CDBF00E00CBF16E0A0E0B2E0EEEAFEE2C2
:1007400000E00BBF02C007900D92AC3BB107D9F798
:1007500028E0ACEBB6E001C01D92A834B207E1F787
:1007600013E0C3E9D3E000E006C021970109802F20
:10077000FE010E944917C239D10780E00807A9F796
:100780000E94B2100C9455173BCCFC01538D448D44
:10079000252F30E0842F90E0821B930B541710F02C
:1007A000CF96089501970895FC01918D828D981739
:1007B00061F0828DDF01A80FB11D5D968C91928D45
:1007C0009F5F9F73928F90E008958FEF9FEF089542
:1007D000FC01918D828D981731F0828DE80FF11D0B
:1007E000858D90E008958FEF9FEF0895FC01918D26
:1007F000228D892F90E0805C9F4F821B91098F731F
:100800009927089583E797E0F1DF21E0892B09F428
:1008100020E0822F0895FC01848DDF01A80FB11D17
:10082000A35ABF4F2C91848D90E001968F73992726
:10083000848FA689B7892C93A089B1898C91806413
:100840008C93938D848D981306C00288F389E02DD4
:1008500080818F7D80830895EF92FF920F931F9385
:10086000CF93DF93EC0181E0888F9B8D8C8D981363
:1008700005C0E889F989808185FD23C0F62E0B8D9E
:1008800010E00F5F1F4F0F731127E02E8C8DE812C1
:100890000BC00FB607FCFACFE889F989808185FF84
:1008A000F5CFCE01B8DFF2CF8B8DFE01E80FF11D41
:1008B000E35AFF4FF0820B8FEA89FB8980818062C7
:1008C00007C0EE89FF896083E889F98980818064A7
:1008D000808381E090E0DF91CF911F910F91FF9095
:1008E000EF900895CF93DF93EC01888D8823C1F0BA
:1008F000EA89FB89808185FD05C0A889B9898C9129
:1009000086FD0EC00FB607FCF5CF808185FFF2CFC4
:10091000A889B9898C9185FFEDCFCE017CDFE8CF26
:10092000DF91CF91089580E090E0892B19F06ADF84
:10093000811125C080E090E0892B41F080E090E0BB
:10094000892B21F00E94000081111CC080E090E002
:10095000892B41F080E090E0892B21F00E9400007B
:10096000811113C080E090E0892BA1F080E090E03D
:10097000892B81F00E94000081110AC008950E9415
:100980000000D8CF0E940000E1CF0E940000EACF13
:100990000C940000089590E0FC013197E231F105DC
:1009A00008F04EC08827EE58FF4F8F4F0C94491720
:1009B000809180008F7703C0809180008F7D80932D
:1009C0008000089580918000877FF9CF84B58F776C
:1009D00002C084B58F7D84BD08958091B0008F776B
:1009E00003C08091B0008F7D8093B0000895809106
:1009F00090008F7707C0809190008F7D03C0809119
:100A00009000877F8093900008958091A0008F7759
:100A100007C08091A0008F7D03C08091A000877FD8
:100A20008093A0000895809120018F7707C0809166
:100A300020018F7D03C080912001877F809320015A
:100A400008953FB7F8948091080790910907A09105
:100A50000A07B0910B0726B5A89B05C02F3F19F0D8
:100A60000196A11DB11D3FBFBA2FA92F982F88272E
:100A7000820F911DA11DB11DBC01CD0142E0660F89
:100A8000771F881F991F4A95D1F708950F931F93D9
:100A9000CF93DF93DC0155968C915597823071F09E
:100AA000833009F1813009F08CC01496ED91FC91EE
:100AB0001597E41BF50BE21BF30B20C01496ED9188
:100AC000FC911597CF01861B970BBC0161507109F2
:100AD0001696ED91FC911797CF01841B950BAC01F5
:100AE000421B530B6EC01696ED91FC911797CF01E8
:100AF000861B970BBC0161507109FA0177FD1BC180
:100B000016968D919C911797681779070CF013C171
:100B1000F7FF04C02E0F3F1FE0E0F0E014968D9128
:100B20009C911597AF01420F531F841795071CF432
:100B30009C012E1B3F0B121613060CF0FCC0CB01C0
:100B400077FD079643E0959587954A95E1F7969549
:100B5000982F882797958795E80FF91FEA5FFD4F33
:100B60006770772781E090E001C0880F6A95EAF707
:100B7000482F0130110541F088F00230110509F0CD
:100B8000DAC02E0F3F1F15C02E0F3F1FE217F307CD
:100B900009F4D1C08081842B8193F8CF80952E0FEA
:100BA0003F1FE217F30709F4C6C090819823919381
:100BB000F8CFE217F30709F4BEC080818427819340
:100BC000F8CF77FDB8C014968D919C911597681752
:100BD00079070CF0B0C057FF04C0240F351F40E068
:100BE00050E016968D919C911797FA01E20FF31F32
:100BF0008E179F071CF49C01241B350B121613063D
:100C00000CF099C0A22F842F86958695869590E842
:100C1000899F600D711D1124FB01EA5FFD4F477034
:100C2000A9F198E0941B492F50E0EA01CE5ED94F1C
:100C30008881291790F4421B51092FEF30E002C040
:100C4000359527954A95E2F782230130110541F049
:100C500068F00230110589F06EC00130110519F4F9
:100C60002081822B0CC00130110520F48095208159
:100C7000822305C00230110531F420818227808350
:100C8000A91708F458C0A91BE058FF4FA83048F135
:100C90000230110559F4EF018A2F988190959883BD
:100CA000C058DF4F88508830C0F730C081E0013035
:100CB000110509F080E08195EF019A2F8883C058D3
:100CC000DF4F98509830D0F788EF8A0F8695869539
:100CD000869590E8899FE00DF11D1124E058FF4FA3
:100CE000A770AA2341F1B0E0A65FB94F8C91013003
:100CF000110529F038F002301105D1F01CC09081A7
:100D0000892B18C080959081892314C088EF8A0FA1
:100D100086958695869590E8899FE00DF11D1124B2
:100D2000E058FF4FA77039F0B0E0A65FB94F8C9143
:100D3000908189278083DF91CF911F910F91089532
:100D40000F931F93CF93DF93DC01FB0155968C919A
:100D50005597823081F0833019F1813051F5149626
:100D60008D919C911597BC01641B750BAB01415093
:100D70005109BF0181C014966D917C911597CB01EB
:100D80008E1B9F0BFC0116968D919C911797BC01B1
:100D9000641B750BAB0141505109E21BF30B09C0F9
:100DA00016966D917C9117976E1B7F0B621B730BD0
:100DB00063C057FD1CC116968D919C9117974817DB
:100DC00059070CF014C1F7FF04C02E0F3F1FE0E0DD
:100DD000F0E014968D919C911597BF01620F731FDF
:100DE000861797071CF49C012E1B3F0B1216130647
:100DF0000CF0FDC0CA0157FD079663E095958795F5
:100E00006A95E1F79695982F882797958795E80F2B
:100E1000F91FEA5FFD4F4770552781E090E001C060
:100E2000880F4A95EAF7482F0130110541F088F004
:100E30000230110509F0DBC02E0F3F1F15C02E0F29
:100E40003F1FE217F30709F4D2C08081842B8193FE
:100E5000F8CF80952E0F3F1FE217F30709F4C7C0A4
:100E6000908198239193F8CFE217F30709F4BFC05C
:100E7000808184278193F8CF57FDB9C014968D9156
:100E80009C911597481759070CF0B1C077FF04C023
:100E9000260F371F60E070E016968D919C91179792
:100EA000FB01E20FF31F8E179F071CF49C01261B0A
:100EB000370B121613060CF09AC0A22F862F8695B8
:100EC0008695869590E8899F400D511D1124FA0161
:100ED000EA5FFD4F6770A9F198E0961B492F50E03B
:100EE000EA01CE5ED94F8881291790F4421B51093F
:100EF0002FEF30E002C0359527954A95E2F782231F
:100F00000130110541F068F00230110589F06FC021
:100F10000130110519F42081822B0CC0013011051C
:100F200020F480952081822305C00230110531F420
:100F3000208182278083A91708F459C0A91BE05893
:100F4000FF4FA83048F10230110559F4EF018A2F04
:100F5000988190959883C058DF4F88508830C0F7AB
:100F600031C081E00130110509F080E08195EF0189
:100F70009A2F8883C058DF4F98509830D0F788EF69
:100F80008A0F86958695869560E8869FE00DF11D0F
:100F90001124E058FF4FA770AA2349F1B0E0A65FE3
:100FA000B94F8C910130110529F038F0023011054C
:100FB000D9F01DC09081892B03C080959081892331
:100FC000808315C088EF8A0F86958695869570E890
:100FD000879FE00DF11D1124E058FF4FA77039F0F5
:100FE000B0E0A65FB94F8C9190818927E9CFDF915E
:100FF000CF911F910F910895FC0177FD9AC08085D4
:101000009185681779070CF094C057FD92C08285CE
:101010009385481759070CF08CC08589823009F0F8
:101020007CC084819581DC01A61BB70BBD0161509A
:10103000710986819781FC01E41BF50BAF014150DA
:1010400051090AC0813041F484819581841B950B3C
:10105000AB01BC01615071092130310529F008F163
:1010600022303105E1F10895FA0157FD3796A3E0EA
:10107000F595E795AA95E1F7F695FE2FEE27F795FA
:10108000E7956E0F7F1FFB01EA5FFD4F4770552705
:1010900081E090E001C0880F4A95EAF79081892BA2
:1010A0003AC0FA0157FD379623E0F595E7952A9562
:1010B000E1F7F695FE2FEE27F795E7956E0F7F1F68
:1010C000FB01EA5FFD4F4770552781E090E001C0CA
:1010D000880F4A95EAF78095908189231CC0FA0110
:1010E00057FD379683E0F595E7958A95E1F7F695F4
:1010F000FE2FEE27F795E7956E0F7F1FFB01EA5F46
:10110000FD4F4770552781E090E001C0880F4A9558
:10111000EAF79081892780830895833009F092CF80
:1011200086819781861B970BBA01AC01415051090A
:1011300093CF089508952F923F924F925F926F92AE
:101140007F928F929F92AF92BF92CF92DF92EF9257
:10115000FF920F931F93CF93DF93CDB7DEB72D97F9
:101160000FB6F894DEBF0FBECDBFFC016A3069F444
:1011700024898685978538E0239F800D911D112451
:101180009787868715861486E4C06D3009F4E1C020
:101190009D878C8754895983828993899D838C8309
:1011A000A089B189BF83AE8386849784C484D584A3
:1011B00080859185C816D906BCF0EC85FD854489EB
:1011C000242F30E084859585F6E04F9F800D911D9A
:1011D0001124AC85BD851D969C938E931C975696C5
:1011E0004C91411192C0B5C0EC85FD8582859385F7
:1011F0008816990614F7F981AF2EB12CC60126E0A6
:10120000F29F800D911D112418161906B4F6C50120
:1012100023E0880F991F2A95E1F7880D991D18166C
:1012200019065CF655E0659FB001112416011A827B
:10123000CB018C199D0999878887D4011896BB87A3
:10124000AA87BA81B53049F0E885F985E20DF31D2A
:10125000E85FFE4F24912B8301C01B8224013401DF
:101260003B8130FF13C0AC85BD85ED91FC91B98108
:10127000B13031F40084F185E02D2E813F8119C019
:101280000288F389E02DEE80FF801EC0EC81FD8195
:101290002E813F81E217F307F1F0AC85BD85ED911A
:1012A000FC91B981B13059F40084F185E02D2C8195
:1012B0003D81A301B1018C859D8519950CC00288E3
:1012C000F389E02DEC80FD8085019501A201B60136
:1012D0008C859D851995EB81E695EB83FFEF6F1A61
:1012E0007F0A4A0C5B1C2A853B856216730609F04F
:1012F000B7CF3A813F5F3A835FEF251A350ACA0CB0
:10130000DB1C363009F09DCF58CF4AEF4203B001C5
:10131000439F700D1124AC85BD8518964D915C914D
:101320001997460F571F481759079CF483E0220F5F
:10133000331F8A95E1F71E968D919C911F97280F78
:10134000391F1F963C932E931E971D961C921E923A
:101350001C9781E090E02D960FB6F894DEBF0FBE8B
:10136000CDBFDF91CF911F910F91FF90EF90DF9054
:10137000CF90BF90AF909F908F907F906F905F9035
:101380004F903F902F900895EF92FF920F931F93ED
:10139000DC01ED91FC9111971A960D911C911B9710
:1013A00018962D913C9119970288F389E02D7B01C5
:1013B00040E050E060E070E019951F910F91FF90C0
:1013C000EF9008956F927F928F929F92AF92BF920B
:1013D000CF92DF92EF92FF920F931F93CF93DF9301
:1013E0006C015A014801EB013B01620E731EC615E8
:1013F000D70574F4D601ED91FC910484F585E02DB8
:1014000087019401A501BE01C60119952196EFCF70
:10141000DF91CF911F910F91FF90EF90DF90CF90D0
:10142000BF90AF909F908F907F906F900895EF92B4
:10143000FF920F931F93DC01ED91FC91260F371F54
:10144000215031090284F385E02D78018A01199534
:101450001F910F91FF90EF900895EF92FF920F93DD
:101460001F937801DC01ED91FC91240F351F890158
:10147000015011090284F385E02D9B0119951F91FC
:101480000F91FF90EF9008956F927F928F929F92AD
:10149000AF92BF92CF92DF92EF92FF920F931F9382
:1014A000CF93DF93EC014B015A0169013801E881C8
:1014B000F9810684F785E02D87011995E881F98186
:1014C000A501460D571D415051090684F785E02DB1
:1014D0009601B401CE011995E881F9810484F5855E
:1014E000E02D9301A501B401CE011995E881F981A0
:1014F000C80CD91CB601615071090484F585E02D32
:101500009301A501CE011995DF91CF911F910F9104
:10151000FF90EF90DF90CF90BF90AF909F908F9013
:101520007F906F9008952F923F924F925F926F92AB
:101530007F928F929F92AF92BF92CF92DF92EF9263
:10154000FF920F931F93CF93DF9300D0CDB7DEB7F9
:101550004C017B836A836A01590117019801241B9E
:10156000350B37FF03C0319521953109C5014A81FB
:101570005B81841B950B97FF03C091958195910921
:1015800051E059838217930714F019820BC09A2DEA
:101590008B2D5801092F182F9A818B81DB82CA82EB
:1015A000C92ED82E8A819B81A816B9065CF49C2D81
:1015B0008D2D6801092F182F9A818B81BB82AA82F9
:1015C000A92EB82E2501AA81BB814A1A5B0A3801CF
:1015D0006C187D0877FE03C07194619471087201E4
:1015E00057FE03C0BFEFEB1AFB0AF594E794C01651
:1015F000D1061CF00FEF1FEF1FC001E010E01CC070
:10160000D401ED91FC91B9810084F185E02D910127
:10161000BB23C1F04A815B81B601C4011995E6186C
:10162000F708F7FE04C0C00ED11EE40CF51CEA81D9
:10163000FB813196FB83EA834A815B81A416B50660
:10164000FCF604C0A6016A817B81E7CF0F900F9062
:101650000F90DF91CF911F910F91FF90EF90DF904E
:10166000CF90BF90AF909F908F907F906F905F9042
:101670004F903F902F90089585ED8093BC0080910E
:10168000BC0084FDFCCF10924F0708954091DE0608
:10169000262F30E0240F311D21323105DCF420915A
:1016A0004F072430C9F4FC0180E090E0861758F41D
:1016B0003091DE062191DC01A454B94FA30FB11D76
:1016C0002C930196F3CF8091DE06680F6093DE06BF
:1016D00080E0089581E0089582E00895089581E012
:1016E00090E030910D0720910C07321710F480E044
:1016F00090E0919581959109089580910D079091C1
:101700000C07891730F48F5F80930D0780E090E01D
:1017100008958FEF9FEF089580910C0790E020913E
:101720000D07821B91090895CF92DF92EF92FF92ED
:101730000F931F93CF93DF937C01262F972F8A015E
:1017400080915007882391F0C62FD72F6E01C40EC9
:10175000D51ECC15DD0569F06991D701ED91FC919D
:101760000190F081E02DC7011995F3CF642F822FEE
:101770008DDFC801DF91CF911F910F91FF90EF9006
:10178000DF90CF900895CF93DF931F92CDB7DEB750
:101790006983209150072223D1F0209172072032D3
:1017A00040F021E030E0FC013383228380E090E0D0
:1017B00014C080915107E82FF0E0EE5AF84F99815C
:1017C00090838F5F809351078093720704C061E01C
:1017D000CE0101965BDF81E090E00F90DF91CF9129
:1017E0000895089580E090E008950E9451171F9297
:1017F0000F920FB60F9211240BB60F922F933F93B7
:101800004F935F936F937F938F939F93AF93BF9308
:10181000EF93FF9383E797E00E940B04FF91EF9112
:10182000BF91AF919F918F917F916F915F914F91F8
:101830003F912F910F900BBE0F900FBE0F901F90F6
:1018400018951F920F920FB60F9211240BB60F929C
:101850002F938F939F93EF93FF93E0918307F091E2
:1018600084078081E0918907F0918A0782FD12C088
:10187000908180918C078F5F8F7320918D078217E5
:1018800051F0E0918C07F0E0ED58F84F958F809380
:101890008C0701C08081FF91EF919F918F912F91D3
:1018A0000F900BBE0F900FBE0F901F901895CF9307
:1018B000DF93282F30E0F901E35EF94F8491F901BD
:1018C000E358F94FD491F901E352F94FC491CC2375
:1018D00089F0811160D8EC2FF0E0EE0FFF1FED5F73
:1018E000F94FA591B491EC91ED2381E090E021F4C2
:1018F00080E002C080E090E0DF91CF9108951F93D7
:10190000CF93DF93282F30E0F901E35EF94F849104
:10191000F901E358F94FD491F901E352F94FC49119
:10192000CC23C1F0162F811136D8EC2FF0E0EE0F4A
:10193000FF1FED53F94FA591B4918FB7F894111192
:1019400005C09C91ED2FE095E92302C0EC91ED2BB1
:10195000EC938FBFDF91CF911F910895CF93DF93C9
:1019600090E0FC01E358F94F2491FC01E352F94F58
:101970008491882361F190E0880F991FFC01ED5953
:10198000F94FC591D491FC01ED53F94FA591B49154
:10199000611109C09FB7F8948881209582238883BC
:1019A000EC912E230BC0623061F49FB7F89438811C
:1019B000822F809583238883EC912E2B2C939FBFBD
:1019C00006C08FB7F894E8812E2B28838FBFDF9154
:1019D000CF9108958F929F92AF92BF92CF92DF9254
:1019E000EF92FF926B017C012CD84B015C01C1147A
:1019F000D104E104F104E9F024D8DC01CB01881919
:101A00009909AA09BB09883E9340A105B10578F35D
:101A100021E0C21AD108E108F10888EE880E83E0BF
:101A2000981EA11CB11CC114D104E104F10421F7DA
:101A3000DECFFF90EF90DF90CF90BF90AF909F9060
:101A40008F9008952FB7F89460910407709105075F
:101A500080910607909107072FBF08951F920F925C
:101A60000FB60F9211242F933F938F939F93AF93B1
:101A7000BF938091040790910507A0910607B0914C
:101A800007073091030723E0230F2D3720F4019639
:101A9000A11DB11D05C026E8230F0296A11DB11D91
:101AA000209303078093040790930507A0930607EC
:101AB000B09307078091080790910907A0910A0742
:101AC000B0910B070196A11DB11D8093080790935B
:101AD0000907A0930A07B0930B07BF91AF919F919D
:101AE0008F913F912F910F900FBE0F901F901895DF
:101AF0001F920F920FB60F9211240BB60F922F93D5
:101B00003F934F935F936F937F938F939F93AF9385
:101B1000BF93EF93FF938091B900887F803609F4DB
:101B20009CC068F5883209F45BC090F4803109F4F8
:101B300054C038F4882309F4F6C0883009F44DC045
:101B4000F5C0883109F44CC0803209F45DC0EEC0A4
:101B5000803409F468C048F4803309F455C08833F0
:101B600009F0E4C080934D07D8C0803509F44FC018
:101B7000883509F45DC0883409F0D8C0D6C08839EA
:101B800009F4C7C0A8F4883709F467C038F4883668
:101B900009F463C0803709F460C0C8C0883809F40C
:101BA000B8C0803909F45FC0803809F0BFC05BC09D
:101BB000803B09F486C038F4803A09F466C0883A5C
:101BC00009F47FC0B3C0803C09F4A7C0883C09F485
:101BD000A4C0883B09F48AC0A9C080912A0710C01C
:101BE00090914C0780914B07981770F5E0914C0746
:101BF00081E08E0F80934C07F0E0E55DF84F808127
:101C00008093BB0085EC86C080934D078EC0E09129
:101C10004C0781E08E0F80934C078091BB00F0E071
:101C2000E55DF84F808390914C0780914B076EC023
:101C3000E0914C0781E08E0F80934C078091BB00B0
:101C4000F0E0E55DF84F808380914E0781116DC013
:101C500081E08093290784EA61C083E080934F0785
:101C600010920207CFCF80910207803208F051C056
:101C7000E091020781E08E0F809302078091BB0004
:101C8000F0E0EE51F94F8083BDCF85EC8093BC002E
:101C900010924F0780910207803230F4E0910207E2
:101CA000F0E0EE51F94F10826091020770E0E09190
:101CB000E006F091E10682EE96E019951092020797
:101CC00035C084E080934F071092DF061092DE0645
:101CD000E091DC06F091DD0619958091DE06811118
:101CE00005C081E08093DE061092BC06E091DF061D
:101CF00081E08E0F8093DF06F0E0E454F94F80819D
:101D00008093BB009091DF068091DE06981708F45F
:101D100079CF85E88093BC0009C085EC8093BC0036
:101D200010924F0703C010924D07A6DCFF91EF9170
:101D3000BF91AF919F918F917F916F915F914F91E3
:101D40003F912F910F900BBE0F900FBE0F901F90E1
:101D500018952091720790914708213208F04AC0E7
:101D600080914F078111FCCF32E030934F0731E073
:101D700030934E073FEF30934D0710924C0720935E
:101D80004B07A2E5B7E04BE257E0FA013E2F341BC8
:101D9000321718F43D913193F9CF10922A07209110
:101DA0002A07990F922B90932A0790912907913037
:101DB00061F41092290790912A079093BB009091AB
:101DC000BC0093FDF8CF95EC01C095EE9093BC005C
:101DD00090914F079230E1F390914D079F3F79F03A
:101DE00080914D07803241F080914D07803331F072
:101DF00084E005C081E003C082E001C083E010926E
:101E000051071092720710925007089590913A0866
:101E1000992339F08EBD00000DB407FEFDCF8EB5BD
:101E2000089528E030E040E8E0913D08F0913E0858
:101E3000508190914408909595239083E0913B08C0
:101E4000F0913C0890914308542F582319F0508189
:101E5000952B03C05081909595239083E0913D0888
:101E6000F0913E08508190914408952B90834695BF
:101E700021503109C9F60895CF92DF92EF92FF9277
:101E80000F931F93CF93DF936C017A018B01C0E016
:101E9000D0E0CE15DF0589F0D8016D918D01D60116
:101EA000ED91FC910190F081E02DC6011995892BEF
:101EB00011F47E0102C02196ECCFC701DF91CF91D2
:101EC0001F910F91FF90EF90DF90CF900895CF93E7
:101ED000C82F809135088F3F51F1E0913F08F09174
:101EE0004008808190914508982B9083E0914108AB
:101EF000F09142082081909146089095922390831A
:101F0000E0913F08F091400820819091450890951C
:101F1000922390838C2F7ADFE0913F08F091400864
:101F2000908180914508892B8083CF91089580917D
:101F3000330891E09093500780934708109251071F
:101F40001092720760E080E198E01DDC6C2F80E168
:101F500098E019DCCF91FDCEEF92FF920F931F9383
:101F6000CF93DF9381E2B3DF80E0B1DF8FE7AFDFB4
:101F700082E2ADDF80E0ABDF87E0A9DF809135084A
:101F80008F3F71F1E0913F08F0914008908180917E
:101F90004508892B8083E0914108F09142089081A7
:101FA00080914608892B8083E0913F08F09140089A
:101FB000908180914508809589238083C6E0D2E096
:101FC000899124DF86E0C630D807D1F7E0913F0839
:101FD000F0914008908180914508892B80832DC025
:101FE000F090B8008CE08093B800C6E0D2E0EE2418
:101FF000E39480913308E092500780934708109251
:1020000051071092720760E480E198E0BCDB00E0C9
:1020100010E0FE01E00FF11F608180E198E0B3DB8A
:102020000F5F1F4F00311105A1F793DE609686E028
:10203000C630D807F1F6F092B800DF91CF911F912A
:102040000F91FF90EF900895009761F0FC010190CF
:102050000020E9F73197AF01481B590BBC018CE117
:1020600098E00ACF80E090E00895CF93DF93ECDF13
:10207000EC018AE996E0E8DF8C0F9D1FDF91CF919C
:10208000089580E094E0E6E0F2E0DF019C011D921B
:1020900021503040E1F708958F929F92AF92BF9206
:1020A0000F931F93CF93DF93CDB7DEB7A1970FB6F2
:1020B000F894DEBF0FBECDBF19A2423008F44AE04B
:1020C0008E010F5D1F4F842E912CA12CB12CA501E8
:1020D0009401AED6E62FB901CA0101501109EA30C8
:1020E00014F4E05D01C0E95CD801EC93232B242BB0
:1020F000252B69F7C801A8DFA1960FB6F894DEBFBB
:102100000FBECDBFDF91CF911F910F91BF90AF90C8
:102110009F908F90089598CFCF92DF92EF92FF9289
:10212000CF93DF936B017C01E0911C08F0911D08B7
:102130000190F081E02D6DE28CE198E01995EC01C1
:1021400066277727CB016C197D098E099F094AE024
:10215000A3DF8C0F9D1FDF91CF91FF90EF90DF9059
:10216000CF900895789484B5826084BD84B58160F1
:1021700084BD85B5826085BD85B5816085BD809152
:102180006E00816080936E001092810080918100CA
:1021900082608093810080918100816080938100C2
:1021A000809180008160809380008091B100846084
:1021B0008093B1008091B00081608093B0008091E5
:1021C0009100826080939100809191008160809362
:1021D0009100809190008160809390008091A10097
:1021E00082608093A1008091A10081608093A10012
:1021F0008091A00081608093A00080912101826085
:10220000809321018091210181608093210180913F
:10221000200181608093200180917A008460809306
:102220007A0080917A00826080937A0080917A00AF
:10223000816080937A0080917A00806880937A0030
:102240001092C100E0918307F0918407C2E0C0833F
:10225000E0918307F09184071082E0917F07F0916D
:1022600080071082E0918107F091820780E18083EE
:1022700010928B07E0918707F091880786E08083B2
:10228000E0918507F0918607808180618083E091ED
:102290008507F0918607808188608083E0918507BB
:1022A000F0918607808180688083E0918507F091B6
:1022B000860780818F7D808362E085E34FDB62E06B
:1022C00083E34CDBC09334088CE380933308809124
:1022D00035088F3F09F4B7C061E0809137083EDBD5
:1022E00061E0809139083ADB80913908082E000CB2
:1022F000990BFC01E352F94FE491F0E0EE0FFF1F60
:10230000ED53F94F259134913093400820933F08C5
:10231000FC01E358F94FE491E093450880913708B8
:10232000082E000C990BFC01E352F94FE491F0E008
:10233000EE0FFF1FED53F94F259134913093420872
:1023400020934108FC01E358F94FE491E0934608DB
:1023500080913A0881113CC061E080913508FEDA35
:1023600061E080913608FADA80913608082E000C78
:10237000990BFC01E352F94FE491F0E0EE0FFF1FDF
:10238000ED53F94F2591349130933E0820933D0849
:10239000FC01E358F94FE491E0934408809135083B
:1023A000082E000C990BFC01E352F94FE491F0E088
:1023B000EE0FFF1FED53F94F2591349130933C08F8
:1023C00020933B08FC01E358F94FE491E093430864
:1023D00080913A08882309F45BC0CFB7F8948091C4
:1023E0000E07811123C0E2E1F7E08491E2EBF6E011
:1023F0009491E82FF0E0EE0FFF1FED59F94FA591F2
:10240000B491EC91E92319F461E085E378DA61E0B5
:1024100085E3A4DA8CB580618CBD8CB580648CBDFD
:1024200061E084E39BDA61E083E398DA80910E0750
:102430008F5F80930E07CFBF8CB58C7F8CBD8DB521
:1024400081608DBD25C010920D0710920C0710926F
:1024500051071092720710924F0781E080934E0748
:102460001092290761E084E14ADA61E085E147DA08
:102470008091B9008E7F8093B9008091B9008D7FE3
:102480008093B90088E48093B80085E48093BC0011
:1024900061E08091380862DA61E0809138082FDAD3
:1024A00061E070E080E090E095DA60E080913808CB
:1024B00026DA6AE070E080E090E08CDA61E08091FA
:1024C00038081DDA8EEA03DD85ED01DD80E8FFDCEA
:1024D00088EAFDDC8FE3FBDC83EDF9DC80E0F7DCF0
:1024E00080E4F5DC8DE8F3DC84E1F1DC80E2EFDC14
:1024F00080E0EDDC81EAEBDC88ECE9DC8AEDE7DC0E
:1025000082E1E5DC81E8E3DC8FECE1DC89EDDFDC16
:1025100081EFDDDC8BEDDBDC80E4D9DC84EAD7DC29
:1025200086EAD5DC8FEAD3DCACDD81E8D0DC80E064
:10253000CEDC81E090E090932F0880932E0890935A
:102540002D0880932C0810922908109228081092C8
:102550002B0810922A08809330088AE596E085DDE2
:1025600086E696E082DD84E390E0909329088093EC
:10257000280889E390E090932B0880932A0889E744
:1025800096E073DDE9DC68E873E180E090E022DA50
:1025900080917B00877F80937B0080E480937C0028
:1025A00080917A00806480937A0080917A0086FD21
:1025B000FCCF609178008091790070E0782B072E35
:1025C000000C880B990B611571058105910509F0C7
:1025D000FAD399E0292E312C412C512C33DA009179
:1025E00025071091260720912707309128076017AB
:1025F00071078207930708F440C080912407811176
:102600003CC080912307C1E08C278093230739DDEC
:1026100084E190E0909329088093280890932B08F8
:1026200080932A08C09330088FEA96E074DD809189
:102630002307882319F08EE796E06DDD84E190E0B2
:10264000909329088093280888E290E090932B08C3
:1026500080932A0886E896E05EDD7EDCF3D9DC0113
:10266000CB01845D9E4FAF4FBF4F80932507909362
:102670002607A0932707B093280785E318D9892B4D
:1026800029F480912407811105C09FC283E30FD9EB
:10269000892BB9F380912407882309F493C285E339
:1026A00006D9892B69F48091040290910502029762
:1026B00097FF02C080E090E09093050280930402AF
:1026C00083E3F5D8892B71F480910402909105027F
:1026D00002968C36910514F08BE690E090930502FB
:1026E0008093040285E3E3D8892B79F583E3DFD86F
:1026F000892B09F478C229C083E3D9D8892B21F426
:1027000085E3D5D8892BC1F39DD900911707109186
:1027100018072091190730911A07C0901B07D09015
:102720001C07E0901D07F0901E070C191D092E09CB
:102730003F09060F171F281F391F00931707109313
:1027400018072093190730931A078091020290917D
:102750000302CA970CF491C020910002309101024B
:102760008091040290910502281739070CF14496D4
:1027700082179307ECF08091150790911607019648
:1027800090931607809315071BD3A201910124D3C0
:10279000DC01CB010497A109B10990931407809340
:1027A00013078FEF9FEF909312078093110765C077
:1027B00080910F07909110070196909310078093D6
:1027C0000F0710921607109215075BDC109229086C
:1027D0001092280810922B0810922A0884E996E09B
:1027E0009ADC60910F0770911007072E000C880B80
:1027F000990B97FF02C090DC02C04AE04DDC8AE9E9
:1028000096E022DC8CE190E09093290880932808E0
:102810008BE190E090932B0880932A0882E08093CC
:1028200030088DE996E021DC97DB60ED77E080E011
:1028300090E0D0D881E0809330088091040290919C
:1028400005020A96909301028093000289E390E0CA
:102850009093030280930202F5D860931F07709350
:102860002007809321079093220710921707109258
:1028700018071092190710921A078091020290917E
:102880000302181619069CF09BD2A2019101A4D252
:10289000DC01CB010497A109B1099093140780933F
:1028A000130781E090E090931207809311078091C5
:1028B0000002909101021816190654F081D225E009
:1028C00030E040E050E088D2709314076093130723
:1028D00080910002909101028F3791057CF070D2B7
:1028E00024E030E040E050E077D2DC01CB010497F7
:1028F000A109B10990931407809313072091000256
:10290000309101028091130790911407820F931F59
:102910009093010280930002209102023091030201
:102920008091110790911207820F931F90930302D9
:1029300080930202A6DB6091040270910502EE24EE
:10294000E394F12C03E010E024E130E04DE350E0AB
:102950008CE198E00E94440A6090020270900302A9
:10296000C0910002D0910102E0911C08F0911D0875
:10297000A3014E5F5F4F0084F185E02D21E030E040
:10298000BE018CE198E01995E0911C08F0911D08BA
:10299000A301425051090084F185E02D21E030E08F
:1029A000BE018CE198E01995E0911C08F0911D089A
:1029B000BE016E5F7F4F0084F185E02D21E030E0A5
:1029C000A3018CE198E01995E0911C08F0911D0895
:1029D000BE01625071090084F185E02D21E030E0F4
:1029E000A3018CE198E0199502E010E06801C60CA3
:1029F000D71CE0911C08F0911D080084F185E02DA2
:102A000021E030E0A6015701AC0EBD1EB5018CE1FE
:102A100098E01995E0911C08F0911D080084F1855B
:102A2000E02D21E030E0A6016E01CE18DF08B601EE
:102A30008CE198E019954301801A910AE0911C08F5
:102A4000F0911D080084F185E02D21E030E0A40123
:102A5000B5018CE198E01995E0911C08F0911D08F2
:102A60000084F185E02D21E030E0A401B6018CE185
:102A700098E0199548018C0E9D1EE0911C08F0917C
:102A80001D080084F185E02D21E030E06701C60CCF
:102A9000D71CA601B4018CE198E019955E01A01A3B
:102AA000B10AE0911C08F0911D080084F185E02D29
:102AB00021E030E0A601B5018CE198E01995E091A4
:102AC0001C08F0911D080084F185E02D21E030E024
:102AD0006301CE18DF08A601B4018CE198E01995D6
:102AE000E0911C08F0911D080084F185E02D21E0A3
:102AF00030E0A601B5018CE198E01995013011058F
:102B000031F09FEFE91AF90A01E010E06FCF10925F
:102B100029081092280810922B0810922A0884E99C
:102B200096E0F9DA60910F0770911007072E000CFC
:102B3000880B990B97FF02C0EFDA02C04AE0ACDACB
:102B400084EB96E0E8DA84EA96E0E5DA609115072E
:102B500070911607072E000C880B990B97FF02C087
:102B6000DBDA02C04AE098DA84EB96E0D4DA89EA4C
:102B700096E0D1DA0E94220D00911F0710912007E4
:102B80002091210730912207DC01CB01801B910BA2
:102B9000A20BB30B0091170710911807209119078A
:102BA00030911A07BC01CD01601B710B820B930B96
:102BB00028EE33E040E050E03BD1CA01B9014AE0E1
:102BC0006BDACAD90E94930409CD81E0809324076F
:102BD0000E94220D60931F077093200780932107A6
:102BE0009093220757CD0E94220D60931B0770938C
:102BF0001C0780931D0790931E0743DA82E390E041
:102C000090932908809328088BE190E090932B08FB
:102C100080932A0886EB96E07EDA9ED964E670E01F
:102C200080E090E00E94EA0C85E30E94570C892B1B
:102C300029F483E30E94570C892BB1F364E670E01A
:102C400080E090E00E94EA0C85E30E94570C892BFB
:102C500029F083E30E94570C892BB1F764E670E0FA
:102C600080E090E00E94EA0C4BCDE3E7F7E01382AE
:102C7000128288EE93E0A0E0B0E084839583A6837F
:102C8000B7832EE136E03183208325EC30E03587B1
:102C9000248724EC30E03787268720EC30E0318B26
:102CA000208B21EC30E0338B228B22EC30E0358B13
:102CB000248B26EC30E0378B268B118E128E138EF0
:102CC000148EE0E1F8E01382128284839583A68358
:102CD000B78380E396E091838083ECE1F8E0138290
:102CE000128220E830E03583248380E490E09783EB
:102CF00086833187208793878287158A1586148675
:102D00001786168681E0848B2FEF3FEF338B228B63
:102D1000318B208B868B82E496E0918380838FEFCA
:102D2000818F858F838F828F84E0848F08958F9227
:102D30009F92AF92BF92CF92DF92EF92FF92CF938A
:102D4000DF93EC01688179818A819B81611571052E
:102D50008105910521F464E279ED8BE597E02DE1A1
:102D600033EF41E050E038D049015A019B01AC01FA
:102D7000A7EAB1E44DD06B017C01ACEEB4EFA50144
:102D8000940152D0DC01CB018C0D9D1DAE1DBF1DE9
:102D9000B7FF03C00197A109B04888839983AA832C
:102DA000BB83BC01CD019F77DF91CF91FF90EF9066
:102DB000DF90CF90BF90AF909F908F900895B7CF46
:102DC00086E096E0B4CF6093060670930706809382
:102DD0000806909309060895052E97FB16F40094B3
:102DE0000FD057FD05D024D007FC02D046F408C010
:102DF00050954095309521953F4F4F4F5F4F089527
:102E000090958095709561957F4F8F4F9F4F089556
:102E100031D0A59F900DB49F900DA49F800D911D62
:102E200011240895B7FFF4CFF3DF821B930B0895AD
:102E3000A1E21A2EAA1BBB1BFD010DC0AA1FBB1FBE
:102E4000EE1FFF1FA217B307E407F50720F0A21B30
:102E5000B30BE40BF50B661F771F881F991F1A949D
:102E600069F760957095809590959B01AC01BD01C7
:102E7000CF010895A29FB001B39FC001A39F700D21
:102E8000811D1124911DB29F700D811D1124911D72
:102E90000895EE0FFF1F881F8BBF0790F691E02D5E
:0E2EA000199481E090E0F89400C0F894FFCF00
:102EAE0040003A0036000000000000000000000064
:102EBE000000000000000000000000000000000004
:102ECE0000000000000000000000000000000000F4
:102EDE0000000000000000000000000000000000E4
:102EEE000000000000808080000000000000000054
:102EFE00000000000000008080C0C0000000000044
:102F0E0000000000000000000000000000000000B3
:102F1E0000000000000000000000000000000000A3
:102F2E000000000000000000000000000000000093
:102F3E000000000000000000000080C0E0F0F8FC7F
:102F4E00F8E000000000000000000000000000009B
:102F5E000000008080808080008080000000008063
:102F6E008080808000FFFFFF000000008080808056
:102F7E0000008080000080FFFF8080008080008045
:102F8E008080800080800000000000808000008C27
:102F9E008E84000080F8F8F8800000000000000029
:102FAE00000000000000F0F0F0F0F0F0F0F0F0F0B3
:102FBE00F0F0E0E0C08000E0FCFEFFFFFF7FFFFFCF
:102FCE00FFFFFF00000000000000000000000000F6
:102FDE0000FEFFC70101010183FFFF00007CFEC759
:102FEE000101010183FFFFFF0038FEC783010101CC
:102FFE0083C7FFFF000001FFFF010100FFFF070174
:10300E00010100007FFF80000000FFFF7F0000FF36
:10301E00FFFF000001FFFFFF0100000000000000A5
:10302E00000000000000030F3F7F7FFFFFFFFFFF48
:10303E00FFFFE7C7C78F8F9FBFFFFFC3C0F0FFFF24
:10304E00FFFFFFFCFCFCFCFCFCFCFCF8F8F0F0E0E5
:10305E00C00001030303030301030300000000018A
:10306E000303030301010301000000010303030333
:10307E00010103030000000303000000030300002E
:10308E000000000000010303030303010000000120
:10309E000301000000030301000000000000000017
:1030AE0000000000000000000080C0E0F0F9FFFF0B
:1030BE00FFFFFF3F1F0F87C7F7FFFF1F1F3DFCF8E6
:1030CE00F8F8F87C7DFFFFFFFFFFFFFFFF7F3F0F4C
:1030DE00070030300000000000000000000000007B
:1030EE0000000000000000000000FEFEFC000000DA
:1030FE0000000000000000000000000000000000C2
:10310E00000000E0C0000000000000000000000011
:10311E003030000000000000000000000000000041
:10312E0000000000000000C0FEFFFFFFFFFFFFFFDA
:10313E00FFFF7F7F3F1F0F071F7FFFFFF8F8FFFF87
:10314E00FFFFFFFEF8E0000000010000000000009D
:10315E000000FEFE000000FCFEFC0C06060EFCF855
:10316E000000F0F81C0E0606060CFFFFFF0000FE26
:10317E00FE00000000FCFEFC00183C7E66E6CE84DD
:10318E00000006FFFF0606FCFEFC0C06060600000D
:10319E00FEFE0000C0F8FC4E4646464E7C784018B7
:1031AE003C76E6CECC80000000000000000000005F
:1031BE000000000000000000000001070F1F1F3F6D
:1031CE003F3F3F1F0F030000000000000000000003
:1031DE0000000F0F0000000F0F0F000000000F0F78
:1031EE00000003070E0C18180C060F0F0F0000013D
:1031FE000F0E0C180C0F070100040E0C180C0F0705
:10320E000000000F0F00000F0F0F00000000000065
:10321E000F0F00000007070C0C181C0C060600040C
:10322E000E0C180C0F07000000000000000000003C
:10323E000000000000000000000000000000000080
:10324E000000000000000000000000000000000070
:10325E000000000000000000000000000000000060
:10326E000000000000000000000000000000000050
:10327E000000000000000000000000000000000040
:10328E000000000000000000000000000000000030
:10329E000000000000000000000000000000000020
:1032AE0000000000000001000000000103070F1FD6
:1032BE003F7F0080C0E0F0F8FCFE000000002C0410
:1032CE003C0FC5037204F603D403E80300000000AC
:1032DE00C30B940BF20B6E0B8C0B7D0B6F0B000064
:1032EE0000009B083C0FF20BF10BFC07930A4605FE
:1032FE00A006440AE209C4099A08502D506F6E6761
:10330E002076312E300044657369676E65642062E5
:10331E007920506C616E6572003230313700414E4B
:10332E0059204B455900746F20737461727420508C
:10333E004F4E47006C6F73743A000D0A006C6F733A
:10334E00657229006869743A0074696D653A0050B7
:0C335E0052455353200050415553450088
:00000001FF
